{
  "_format": "hh-sol-artifact-1",
  "contractName": "SoulboundNFT",
  "sourceName": "contracts/identity/SoulboundNFT.sol",
  "abi": [
    {
      "inputs": [],
      "stateMutability": "nonpayable",
      "type": "constructor"
    },
    {
      "anonymous": false,
      "inputs": [
        {
          "indexed": true,
          "internalType": "address",
          "name": "owner",
          "type": "address"
        },
        {
          "indexed": true,
          "internalType": "address",
          "name": "approved",
          "type": "address"
        },
        {
          "indexed": true,
          "internalType": "uint256",
          "name": "tokenId",
          "type": "uint256"
        }
      ],
      "name": "Approval",
      "type": "event"
    },
    {
      "anonymous": false,
      "inputs": [
        {
          "indexed": true,
          "internalType": "address",
          "name": "owner",
          "type": "address"
        },
        {
          "indexed": true,
          "internalType": "address",
          "name": "operator",
          "type": "address"
        },
        {
          "indexed": false,
          "internalType": "bool",
          "name": "approved",
          "type": "bool"
        }
      ],
      "name": "ApprovalForAll",
      "type": "event"
    },
    {
      "anonymous": false,
      "inputs": [
        {
          "indexed": false,
          "internalType": "uint256",
          "name": "_fromTokenId",
          "type": "uint256"
        },
        {
          "indexed": false,
          "internalType": "uint256",
          "name": "_toTokenId",
          "type": "uint256"
        }
      ],
      "name": "BatchMetadataUpdate",
      "type": "event"
    },
    {
      "anonymous": false,
      "inputs": [
        {
          "indexed": true,
          "internalType": "uint256",
          "name": "tokenId",
          "type": "uint256"
        },
        {
          "indexed": false,
          "internalType": "string",
          "name": "chainId",
          "type": "string"
        },
        {
          "indexed": false,
          "internalType": "string",
          "name": "chainAddress",
          "type": "string"
        }
      ],
      "name": "ChainIdentityAdded",
      "type": "event"
    },
    {
      "anonymous": false,
      "inputs": [
        {
          "indexed": true,
          "internalType": "uint256",
          "name": "tokenId",
          "type": "uint256"
        },
        {
          "indexed": false,
          "internalType": "bytes32",
          "name": "credentialHash",
          "type": "bytes32"
        },
        {
          "indexed": false,
          "internalType": "bool",
          "name": "isValid",
          "type": "bool"
        }
      ],
      "name": "CredentialAddedToToken",
      "type": "event"
    },
    {
      "anonymous": false,
      "inputs": [
        {
          "indexed": true,
          "internalType": "string",
          "name": "issuerDid",
          "type": "string"
        },
        {
          "indexed": true,
          "internalType": "string",
          "name": "subjectDid",
          "type": "string"
        },
        {
          "indexed": false,
          "internalType": "bytes32",
          "name": "credentialHash",
          "type": "bytes32"
        }
      ],
      "name": "CredentialIssued",
      "type": "event"
    },
    {
      "anonymous": false,
      "inputs": [
        {
          "indexed": true,
          "internalType": "uint256",
          "name": "tokenId",
          "type": "uint256"
        },
        {
          "indexed": false,
          "internalType": "enum SoulboundNFT.CredentialStatus",
          "name": "newStatus",
          "type": "uint8"
        }
      ],
      "name": "CredentialStatusChanged",
      "type": "event"
    },
    {
      "anonymous": false,
      "inputs": [
        {
          "indexed": true,
          "internalType": "uint256",
          "name": "tokenId",
          "type": "uint256"
        },
        {
          "indexed": false,
          "internalType": "bytes32",
          "name": "credentialHash",
          "type": "bytes32"
        },
        {
          "indexed": false,
          "internalType": "bool",
          "name": "isValid",
          "type": "bool"
        }
      ],
      "name": "CredentialStatusUpdated",
      "type": "event"
    },
    {
      "anonymous": false,
      "inputs": [
        {
          "indexed": true,
          "internalType": "uint256",
          "name": "tokenId",
          "type": "uint256"
        },
        {
          "indexed": false,
          "internalType": "bytes32",
          "name": "newCredentialHash",
          "type": "bytes32"
        },
        {
          "indexed": false,
          "internalType": "string",
          "name": "newCredentialCID",
          "type": "string"
        }
      ],
      "name": "CredentialUpdated",
      "type": "event"
    },
    {
      "anonymous": false,
      "inputs": [
        {
          "indexed": true,
          "internalType": "string",
          "name": "did",
          "type": "string"
        },
        {
          "indexed": true,
          "internalType": "string",
          "name": "controllerDid",
          "type": "string"
        }
      ],
      "name": "DIDControllerAdded",
      "type": "event"
    },
    {
      "anonymous": false,
      "inputs": [
        {
          "indexed": true,
          "internalType": "string",
          "name": "did",
          "type": "string"
        },
        {
          "indexed": true,
          "internalType": "string",
          "name": "controllerDid",
          "type": "string"
        }
      ],
      "name": "DIDControllerRemoved",
      "type": "event"
    },
    {
      "anonymous": false,
      "inputs": [
        {
          "indexed": true,
          "internalType": "address",
          "name": "entity",
          "type": "address"
        },
        {
          "indexed": true,
          "internalType": "uint256",
          "name": "tokenId",
          "type": "uint256"
        },
        {
          "indexed": false,
          "internalType": "string",
          "name": "did",
          "type": "string"
        },
        {
          "indexed": false,
          "internalType": "bytes32",
          "name": "credentialHash",
          "type": "bytes32"
        },
        {
          "indexed": false,
          "internalType": "string",
          "name": "credentialCID",
          "type": "string"
        }
      ],
      "name": "IdentityVerified",
      "type": "event"
    },
    {
      "anonymous": false,
      "inputs": [
        {
          "indexed": false,
          "internalType": "uint256",
          "name": "_tokenId",
          "type": "uint256"
        }
      ],
      "name": "MetadataUpdate",
      "type": "event"
    },
    {
      "anonymous": false,
      "inputs": [
        {
          "indexed": true,
          "internalType": "bytes32",
          "name": "role",
          "type": "bytes32"
        },
        {
          "indexed": true,
          "internalType": "bytes32",
          "name": "previousAdminRole",
          "type": "bytes32"
        },
        {
          "indexed": true,
          "internalType": "bytes32",
          "name": "newAdminRole",
          "type": "bytes32"
        }
      ],
      "name": "RoleAdminChanged",
      "type": "event"
    },
    {
      "anonymous": false,
      "inputs": [
        {
          "indexed": true,
          "internalType": "bytes32",
          "name": "role",
          "type": "bytes32"
        },
        {
          "indexed": true,
          "internalType": "address",
          "name": "account",
          "type": "address"
        },
        {
          "indexed": true,
          "internalType": "address",
          "name": "sender",
          "type": "address"
        }
      ],
      "name": "RoleGranted",
      "type": "event"
    },
    {
      "anonymous": false,
      "inputs": [
        {
          "indexed": true,
          "internalType": "bytes32",
          "name": "role",
          "type": "bytes32"
        },
        {
          "indexed": true,
          "internalType": "address",
          "name": "account",
          "type": "address"
        },
        {
          "indexed": true,
          "internalType": "address",
          "name": "sender",
          "type": "address"
        }
      ],
      "name": "RoleRevoked",
      "type": "event"
    },
    {
      "anonymous": false,
      "inputs": [
        {
          "indexed": true,
          "internalType": "address",
          "name": "from",
          "type": "address"
        },
        {
          "indexed": true,
          "internalType": "address",
          "name": "to",
          "type": "address"
        },
        {
          "indexed": true,
          "internalType": "uint256",
          "name": "tokenId",
          "type": "uint256"
        }
      ],
      "name": "Transfer",
      "type": "event"
    },
    {
      "inputs": [],
      "name": "CREDENTIAL_MANAGER_ROLE",
      "outputs": [
        {
          "internalType": "bytes32",
          "name": "",
          "type": "bytes32"
        }
      ],
      "stateMutability": "view",
      "type": "function"
    },
    {
      "inputs": [],
      "name": "DEFAULT_ADMIN_ROLE",
      "outputs": [
        {
          "internalType": "bytes32",
          "name": "",
          "type": "bytes32"
        }
      ],
      "stateMutability": "view",
      "type": "function"
    },
    {
      "inputs": [],
      "name": "VERIFIER_ROLE",
      "outputs": [
        {
          "internalType": "bytes32",
          "name": "",
          "type": "bytes32"
        }
      ],
      "stateMutability": "view",
      "type": "function"
    },
    {
      "inputs": [
        {
          "internalType": "uint256",
          "name": "tokenId",
          "type": "uint256"
        },
        {
          "internalType": "string",
          "name": "chainId",
          "type": "string"
        },
        {
          "internalType": "string",
          "name": "chainAddress",
          "type": "string"
        }
      ],
      "name": "addChainIdentity",
      "outputs": [],
      "stateMutability": "nonpayable",
      "type": "function"
    },
    {
      "inputs": [
        {
          "internalType": "uint256",
          "name": "tokenId",
          "type": "uint256"
        },
        {
          "internalType": "bytes32",
          "name": "credentialHash",
          "type": "bytes32"
        },
        {
          "internalType": "bool",
          "name": "isValid",
          "type": "bool"
        }
      ],
      "name": "addCredentialToToken",
      "outputs": [],
      "stateMutability": "nonpayable",
      "type": "function"
    },
    {
      "inputs": [
        {
          "internalType": "string",
          "name": "did",
          "type": "string"
        },
        {
          "internalType": "string",
          "name": "controllerDid",
          "type": "string"
        }
      ],
      "name": "addDIDController",
      "outputs": [],
      "stateMutability": "nonpayable",
      "type": "function"
    },
    {
      "inputs": [
        {
          "internalType": "address",
          "name": "to",
          "type": "address"
        },
        {
          "internalType": "uint256",
          "name": "tokenId",
          "type": "uint256"
        }
      ],
      "name": "approve",
      "outputs": [],
      "stateMutability": "nonpayable",
      "type": "function"
    },
    {
      "inputs": [
        {
          "internalType": "address",
          "name": "owner",
          "type": "address"
        }
      ],
      "name": "balanceOf",
      "outputs": [
        {
          "internalType": "uint256",
          "name": "",
          "type": "uint256"
        }
      ],
      "stateMutability": "view",
      "type": "function"
    },
    {
      "inputs": [
        {
          "internalType": "bytes32",
          "name": "",
          "type": "bytes32"
        }
      ],
      "name": "credentialHashToTokenId",
      "outputs": [
        {
          "internalType": "uint256",
          "name": "",
          "type": "uint256"
        }
      ],
      "stateMutability": "view",
      "type": "function"
    },
    {
      "inputs": [
        {
          "internalType": "bytes32",
          "name": "",
          "type": "bytes32"
        }
      ],
      "name": "credentialValidity",
      "outputs": [
        {
          "internalType": "bool",
          "name": "",
          "type": "bool"
        }
      ],
      "stateMutability": "view",
      "type": "function"
    },
    {
      "inputs": [
        {
          "internalType": "string",
          "name": "",
          "type": "string"
        },
        {
          "internalType": "string",
          "name": "",
          "type": "string"
        }
      ],
      "name": "didControllers",
      "outputs": [
        {
          "internalType": "bool",
          "name": "",
          "type": "bool"
        }
      ],
      "stateMutability": "view",
      "type": "function"
    },
    {
      "inputs": [
        {
          "internalType": "string",
          "name": "",
          "type": "string"
        }
      ],
      "name": "didToTokenId",
      "outputs": [
        {
          "internalType": "uint256",
          "name": "",
          "type": "uint256"
        }
      ],
      "stateMutability": "view",
      "type": "function"
    },
    {
      "inputs": [
        {
          "internalType": "uint256",
          "name": "tokenId",
          "type": "uint256"
        }
      ],
      "name": "getApproved",
      "outputs": [
        {
          "internalType": "address",
          "name": "",
          "type": "address"
        }
      ],
      "stateMutability": "view",
      "type": "function"
    },
    {
      "inputs": [
        {
          "internalType": "uint256",
          "name": "tokenId",
          "type": "uint256"
        },
        {
          "internalType": "string",
          "name": "chainId",
          "type": "string"
        }
      ],
      "name": "getChainAddress",
      "outputs": [
        {
          "internalType": "string",
          "name": "",
          "type": "string"
        }
      ],
      "stateMutability": "view",
      "type": "function"
    },
    {
      "inputs": [
        {
          "internalType": "uint256",
          "name": "tokenId",
          "type": "uint256"
        }
      ],
      "name": "getCredentialCID",
      "outputs": [
        {
          "internalType": "string",
          "name": "",
          "type": "string"
        }
      ],
      "stateMutability": "view",
      "type": "function"
    },
    {
      "inputs": [
        {
          "internalType": "uint256",
          "name": "tokenId",
          "type": "uint256"
        }
      ],
      "name": "getCredentialHash",
      "outputs": [
        {
          "internalType": "bytes32",
          "name": "",
          "type": "bytes32"
        }
      ],
      "stateMutability": "view",
      "type": "function"
    },
    {
      "inputs": [
        {
          "internalType": "uint256",
          "name": "tokenId",
          "type": "uint256"
        }
      ],
      "name": "getCredentialStatus",
      "outputs": [
        {
          "internalType": "enum SoulboundNFT.CredentialStatus",
          "name": "",
          "type": "uint8"
        }
      ],
      "stateMutability": "view",
      "type": "function"
    },
    {
      "inputs": [
        {
          "internalType": "uint256",
          "name": "tokenId",
          "type": "uint256"
        }
      ],
      "name": "getDID",
      "outputs": [
        {
          "internalType": "string",
          "name": "",
          "type": "string"
        }
      ],
      "stateMutability": "view",
      "type": "function"
    },
    {
      "inputs": [
        {
          "internalType": "bytes32",
          "name": "role",
          "type": "bytes32"
        }
      ],
      "name": "getRoleAdmin",
      "outputs": [
        {
          "internalType": "bytes32",
          "name": "",
          "type": "bytes32"
        }
      ],
      "stateMutability": "view",
      "type": "function"
    },
    {
      "inputs": [
        {
          "internalType": "uint256",
          "name": "tokenId",
          "type": "uint256"
        }
      ],
      "name": "getTokenCredentials",
      "outputs": [
        {
          "internalType": "bytes32[]",
          "name": "",
          "type": "bytes32[]"
        }
      ],
      "stateMutability": "view",
      "type": "function"
    },
    {
      "inputs": [
        {
          "internalType": "string",
          "name": "did",
          "type": "string"
        }
      ],
      "name": "getTokenIdByDID",
      "outputs": [
        {
          "internalType": "uint256",
          "name": "",
          "type": "uint256"
        }
      ],
      "stateMutability": "view",
      "type": "function"
    },
    {
      "inputs": [
        {
          "internalType": "bytes32",
          "name": "role",
          "type": "bytes32"
        },
        {
          "internalType": "address",
          "name": "account",
          "type": "address"
        }
      ],
      "name": "grantRole",
      "outputs": [],
      "stateMutability": "nonpayable",
      "type": "function"
    },
    {
      "inputs": [
        {
          "internalType": "bytes32",
          "name": "role",
          "type": "bytes32"
        },
        {
          "internalType": "address",
          "name": "account",
          "type": "address"
        }
      ],
      "name": "hasRole",
      "outputs": [
        {
          "internalType": "bool",
          "name": "",
          "type": "bool"
        }
      ],
      "stateMutability": "view",
      "type": "function"
    },
    {
      "inputs": [
        {
          "internalType": "address",
          "name": "owner",
          "type": "address"
        },
        {
          "internalType": "address",
          "name": "operator",
          "type": "address"
        }
      ],
      "name": "isApprovedForAll",
      "outputs": [
        {
          "internalType": "bool",
          "name": "",
          "type": "bool"
        }
      ],
      "stateMutability": "view",
      "type": "function"
    },
    {
      "inputs": [
        {
          "internalType": "string",
          "name": "did",
          "type": "string"
        },
        {
          "internalType": "string",
          "name": "controllerDid",
          "type": "string"
        }
      ],
      "name": "isControlledBy",
      "outputs": [
        {
          "internalType": "bool",
          "name": "",
          "type": "bool"
        }
      ],
      "stateMutability": "view",
      "type": "function"
    },
    {
      "inputs": [
        {
          "internalType": "uint256",
          "name": "tokenId",
          "type": "uint256"
        }
      ],
      "name": "isCredentialExpired",
      "outputs": [
        {
          "internalType": "bool",
          "name": "",
          "type": "bool"
        }
      ],
      "stateMutability": "view",
      "type": "function"
    },
    {
      "inputs": [
        {
          "internalType": "uint256",
          "name": "tokenId",
          "type": "uint256"
        },
        {
          "internalType": "bytes32",
          "name": "credentialHash",
          "type": "bytes32"
        }
      ],
      "name": "isCredentialValid",
      "outputs": [
        {
          "internalType": "bool",
          "name": "",
          "type": "bool"
        }
      ],
      "stateMutability": "view",
      "type": "function"
    },
    {
      "inputs": [
        {
          "internalType": "string",
          "name": "issuerDid",
          "type": "string"
        },
        {
          "internalType": "string",
          "name": "subjectDid",
          "type": "string"
        },
        {
          "internalType": "bytes32",
          "name": "credentialHash",
          "type": "bytes32"
        }
      ],
      "name": "issueCredential",
      "outputs": [],
      "stateMutability": "nonpayable",
      "type": "function"
    },
    {
      "inputs": [],
      "name": "name",
      "outputs": [
        {
          "internalType": "string",
          "name": "",
          "type": "string"
        }
      ],
      "stateMutability": "view",
      "type": "function"
    },
    {
      "inputs": [
        {
          "internalType": "uint256",
          "name": "tokenId",
          "type": "uint256"
        }
      ],
      "name": "ownerOf",
      "outputs": [
        {
          "internalType": "address",
          "name": "",
          "type": "address"
        }
      ],
      "stateMutability": "view",
      "type": "function"
    },
    {
      "inputs": [
        {
          "internalType": "string",
          "name": "did",
          "type": "string"
        },
        {
          "internalType": "string",
          "name": "controllerDid",
          "type": "string"
        }
      ],
      "name": "removeDIDController",
      "outputs": [],
      "stateMutability": "nonpayable",
      "type": "function"
    },
    {
      "inputs": [
        {
          "internalType": "bytes32",
          "name": "role",
          "type": "bytes32"
        },
        {
          "internalType": "address",
          "name": "account",
          "type": "address"
        }
      ],
      "name": "renounceRole",
      "outputs": [],
      "stateMutability": "nonpayable",
      "type": "function"
    },
    {
      "inputs": [
        {
          "internalType": "bytes32",
          "name": "role",
          "type": "bytes32"
        },
        {
          "internalType": "address",
          "name": "account",
          "type": "address"
        }
      ],
      "name": "revokeRole",
      "outputs": [],
      "stateMutability": "nonpayable",
      "type": "function"
    },
    {
      "inputs": [
        {
          "internalType": "address",
          "name": "from",
          "type": "address"
        },
        {
          "internalType": "address",
          "name": "to",
          "type": "address"
        },
        {
          "internalType": "uint256",
          "name": "tokenId",
          "type": "uint256"
        }
      ],
      "name": "safeTransferFrom",
      "outputs": [],
      "stateMutability": "nonpayable",
      "type": "function"
    },
    {
      "inputs": [
        {
          "internalType": "address",
          "name": "from",
          "type": "address"
        },
        {
          "internalType": "address",
          "name": "to",
          "type": "address"
        },
        {
          "internalType": "uint256",
          "name": "tokenId",
          "type": "uint256"
        },
        {
          "internalType": "bytes",
          "name": "data",
          "type": "bytes"
        }
      ],
      "name": "safeTransferFrom",
      "outputs": [],
      "stateMutability": "nonpayable",
      "type": "function"
    },
    {
      "inputs": [
        {
          "internalType": "address",
          "name": "operator",
          "type": "address"
        },
        {
          "internalType": "bool",
          "name": "approved",
          "type": "bool"
        }
      ],
      "name": "setApprovalForAll",
      "outputs": [],
      "stateMutability": "nonpayable",
      "type": "function"
    },
    {
      "inputs": [
        {
          "internalType": "bytes4",
          "name": "interfaceId",
          "type": "bytes4"
        }
      ],
      "name": "supportsInterface",
      "outputs": [
        {
          "internalType": "bool",
          "name": "",
          "type": "bool"
        }
      ],
      "stateMutability": "view",
      "type": "function"
    },
    {
      "inputs": [],
      "name": "symbol",
      "outputs": [
        {
          "internalType": "string",
          "name": "",
          "type": "string"
        }
      ],
      "stateMutability": "view",
      "type": "function"
    },
    {
      "inputs": [
        {
          "internalType": "uint256",
          "name": "",
          "type": "uint256"
        }
      ],
      "name": "tokenHierarchy",
      "outputs": [
        {
          "internalType": "uint256",
          "name": "parentId",
          "type": "uint256"
        },
        {
          "internalType": "address",
          "name": "owner",
          "type": "address"
        },
        {
          "internalType": "string",
          "name": "did",
          "type": "string"
        },
        {
          "internalType": "bytes32",
          "name": "credentialHash",
          "type": "bytes32"
        },
        {
          "internalType": "string",
          "name": "credentialCID",
          "type": "string"
        },
        {
          "internalType": "enum SoulboundNFT.CredentialStatus",
          "name": "status",
          "type": "uint8"
        },
        {
          "internalType": "uint256",
          "name": "expirationTime",
          "type": "uint256"
        },
        {
          "internalType": "bytes32",
          "name": "credentialsMerkleRoot",
          "type": "bytes32"
        }
      ],
      "stateMutability": "view",
      "type": "function"
    },
    {
      "inputs": [
        {
          "internalType": "uint256",
          "name": "tokenId",
          "type": "uint256"
        }
      ],
      "name": "tokenURI",
      "outputs": [
        {
          "internalType": "string",
          "name": "",
          "type": "string"
        }
      ],
      "stateMutability": "view",
      "type": "function"
    },
    {
      "inputs": [
        {
          "internalType": "address",
          "name": "from",
          "type": "address"
        },
        {
          "internalType": "address",
          "name": "to",
          "type": "address"
        },
        {
          "internalType": "uint256",
          "name": "tokenId",
          "type": "uint256"
        }
      ],
      "name": "transferFrom",
      "outputs": [],
      "stateMutability": "nonpayable",
      "type": "function"
    },
    {
      "inputs": [
        {
          "internalType": "uint256",
          "name": "tokenId",
          "type": "uint256"
        },
        {
          "internalType": "bytes32",
          "name": "newCredentialHash",
          "type": "bytes32"
        },
        {
          "internalType": "string",
          "name": "newCredentialCID",
          "type": "string"
        },
        {
          "internalType": "uint256",
          "name": "expirationTime",
          "type": "uint256"
        }
      ],
      "name": "updateCredential",
      "outputs": [],
      "stateMutability": "nonpayable",
      "type": "function"
    },
    {
      "inputs": [
        {
          "internalType": "uint256",
          "name": "tokenId",
          "type": "uint256"
        },
        {
          "internalType": "enum SoulboundNFT.CredentialStatus",
          "name": "newStatus",
          "type": "uint8"
        }
      ],
      "name": "updateCredentialStatus",
      "outputs": [],
      "stateMutability": "nonpayable",
      "type": "function"
    },
    {
      "inputs": [
        {
          "internalType": "bytes32",
          "name": "credentialHash",
          "type": "bytes32"
        },
        {
          "internalType": "bool",
          "name": "isValid",
          "type": "bool"
        }
      ],
      "name": "updateCredentialStatus",
      "outputs": [],
      "stateMutability": "nonpayable",
      "type": "function"
    },
    {
      "inputs": [
        {
          "internalType": "bytes32",
          "name": "credentialHash",
          "type": "bytes32"
        }
      ],
      "name": "verifyCredential",
      "outputs": [
        {
          "internalType": "bool",
          "name": "",
          "type": "bool"
        }
      ],
      "stateMutability": "view",
      "type": "function"
    },
    {
      "inputs": [
        {
          "internalType": "address",
          "name": "entity",
          "type": "address"
        },
        {
          "internalType": "string",
          "name": "did",
          "type": "string"
        },
        {
          "internalType": "bytes32",
          "name": "credentialHash",
          "type": "bytes32"
        },
        {
          "internalType": "string",
          "name": "credentialCID",
          "type": "string"
        },
        {
          "internalType": "uint256",
          "name": "expirationTime",
          "type": "uint256"
        }
      ],
      "name": "verifyIdentity",
      "outputs": [],
      "stateMutability": "nonpayable",
      "type": "function"
    }
  ],
  "bytecode": "0x60806040523480156200001157600080fd5b5060405180604001604052806011815260200170536f756c626f756e644964656e7469747960781b8152506040518060400160405280600481526020016314d0925160e21b81525081600090816200006a919062000233565b50600162000079828262000233565b506200008b91506000905033620000e9565b620000b77f0ce23c3e399818cfee81a7ab0880f714e53d7672b08df0fa62f2843416e1ea0933620000e9565b620000e37f659d1caa2ecc59fb398ac59d0f2b9fda0705098c7ff7d2e769f458972b1e82bd33620000e9565b620002ff565b60008281526007602090815260408083206001600160a01b038516845290915290205460ff166200018a5760008281526007602090815260408083206001600160a01b03851684529091529020805460ff19166001179055620001493390565b6001600160a01b0316816001600160a01b0316837f2f8788117e7eff1d82e926ec794901d17c78024a50270940304540a733656f0d60405160405180910390a45b5050565b634e487b7160e01b600052604160045260246000fd5b600181811c90821680620001b957607f821691505b602082108103620001da57634e487b7160e01b600052602260045260246000fd5b50919050565b601f8211156200022e57600081815260208120601f850160051c81016020861015620002095750805b601f850160051c820191505b818110156200022a5782815560010162000215565b5050505b505050565b81516001600160401b038111156200024f576200024f6200018e565b6200026781620002608454620001a4565b84620001e0565b602080601f8311600181146200029f5760008415620002865750858301515b600019600386901b1c1916600185901b1785556200022a565b600085815260208120601f198616915b82811015620002d057888601518255948401946001909101908401620002af565b5085821015620002ef5787850151600019600388901b60f8161c191681555b5050505050600190811b01905550565b6135cc806200030f6000396000f3fe608060405234801561001057600080fd5b506004361061028a5760003560e01c80636f63306b1161015c578063b25020e8116100ce578063cdc78a9d11610087578063cdc78a9d14610635578063d547741f14610648578063d56877121461065b578063e7705db6146106a6578063e8ee6886146106cd578063e985e9c5146106e057600080fd5b8063b25020e8146105b6578063b7ede92d146105c9578063b88d4fde146105dc578063c87b551b146105ef578063c87b56dd1461060f578063cb3afe041461062257600080fd5b806395d89b411161012057806395d89b41146105255780639691019a1461052d578063a217fddf14610558578063a22cb46514610560578063ac8fcae314610573578063afe186681461059357600080fd5b80636f63306b146104c65780636ffec475146104d957806370a08231146104ec57806378f79c80146104ff57806391d148541461051257600080fd5b80632ffc961d116102005780635d256186116101b95780635d256186146104335780635d4e7baf1461045357806360fd7ef11461047a5780636352211e1461048d578063658aeb78146104a05780636c8c1937146104b357600080fd5b80632ffc961d146103b157806336568abe146103c45780633eaaebd0146103d757806342842e0e146103ea5780634dbf87cc146103fd5780635c591ef11461042057600080fd5b80631fafb68f116102525780631fafb68f1461032d57806321abf2ca1461034057806323b872dd14610355578063248a9ca3146103685780632a50d9da1461038b5780632f2ff15d1461039e57600080fd5b806301ffc9a71461028f57806306fdde03146102b7578063081812fc146102cc578063095ea7b3146102f75780631285a3271461030c575b600080fd5b6102a261029d3660046129b5565b61071c565b60405190151581526020015b60405180910390f35b6102bf61072d565b6040516102ae9190612a22565b6102df6102da366004612a35565b6107bf565b6040516001600160a01b0390911681526020016102ae565b61030a610305366004612a6a565b6107e6565b005b61031f61031a366004612b40565b610900565b6040519081526020016102ae565b6102bf61033b366004612a35565b610944565b61031f60008051602061357783398151915281565b61030a610363366004612b75565b610a0c565b61031f610376366004612a35565b60009081526007602052604090206001015490565b61030a610399366004612bb1565b610a3d565b61030a6103ac366004612c1e565b610b2f565b61030a6103bf366004612c4a565b610b54565b61030a6103d2366004612c1e565b610c8a565b61030a6103e5366004612cbe565b610d08565b61030a6103f8366004612b75565b610dd4565b6102a261040b366004612a35565b6000908152600b602052604090205460ff1690565b61030a61042e366004612cf3565b610def565b610446610441366004612a35565b610fef565b6040516102ae9190612d98565b610466610461366004612a35565b61102f565b6040516102ae989796959493929190612da6565b61030a610488366004612e11565b611190565b6102df61049b366004612a35565b61127d565b61031f6104ae366004612a35565b6112dd565b6102bf6104c1366004612e69565b61131a565b6102a26104d4366004612ea6565b611404565b6102bf6104e7366004612a35565b611450565b61031f6104fa366004612ec8565b611493565b6102a261050d366004612a35565b611519565b6102a2610520366004612c1e565b61156b565b6102bf611596565b61031f61053b366004612b40565b8051602081830181018051600a8252928201919093012091525481565b61031f600081565b61030a61056e366004612ee3565b6115a5565b610586610581366004612a35565b6115b0565b6040516102ae9190612f0d565b6102a26105a1366004612a35565b600b6020526000908152604090205460ff1681565b61030a6105c4366004612c4a565b611639565b61030a6105d7366004612f51565b61176f565b61030a6105ea366004612f85565b611845565b61031f6105fd366004612a35565b600d6020526000908152604090205481565b6102bf61061d366004612a35565b61187d565b6102a2610630366004612c4a565b611888565b61030a610643366004613001565b6118d1565b61030a610656366004612c1e565b61199f565b6102a2610669366004612c4a565b8151602081840181018051600c82529282019482019490942091909352815180830184018051928152908401929093019190912091525460ff1681565b61031f7f0ce23c3e399818cfee81a7ab0880f714e53d7672b08df0fa62f2843416e1ea0981565b61030a6106db366004613024565b6119c4565b6102a26106ee3660046130aa565b6001600160a01b03918216600090815260056020908152604080832093909416825291909152205460ff1690565b600061072782611c01565b92915050565b60606000805461073c906130d4565b80601f0160208091040260200160405190810160405280929190818152602001828054610768906130d4565b80156107b55780601f1061078a576101008083540402835291602001916107b5565b820191906000526020600020905b81548152906001019060200180831161079857829003601f168201915b5050505050905090565b60006107ca82611c26565b506000908152600460205260409020546001600160a01b031690565b60006107f18261127d565b9050806001600160a01b0316836001600160a01b0316036108635760405162461bcd60e51b815260206004820152602160248201527f4552433732313a20617070726f76616c20746f2063757272656e74206f776e656044820152603960f91b60648201526084015b60405180910390fd5b336001600160a01b038216148061087f575061087f81336106ee565b6108f15760405162461bcd60e51b815260206004820152603d60248201527f4552433732313a20617070726f76652063616c6c6572206973206e6f7420746f60448201527f6b656e206f776e6572206f7220617070726f76656420666f7220616c6c000000606482015260840161085a565b6108fb8383611c79565b505050565b600080600a83604051610913919061310e565b9081526020016040518091039020549050806000036107275760405162461bcd60e51b815260040161085a9061312a565b606061094f82611ce7565b61096b5760405162461bcd60e51b815260040161085a90613151565b60008281526009602052604090206002018054610987906130d4565b80601f01602080910402602001604051908101604052809291908181526020018280546109b3906130d4565b8015610a005780601f106109d557610100808354040283529160200191610a00565b820191906000526020600020905b8154815290600101906020018083116109e357829003601f168201915b50505050509050919050565b610a163382611d04565b610a325760405162461bcd60e51b815260040161085a9061317f565b6108fb838383611d83565b610a4683611ce7565b610a625760405162461bcd60e51b815260040161085a90613151565b33610a6c8461127d565b6001600160a01b03161480610a945750610a946000805160206135778339815191523361156b565b610ab05760405162461bcd60e51b815260040161085a906131cc565b60008381526009602052604090819020905182906005830190610ad490869061310e565b90815260200160405180910390209081610aee9190613242565b50837f909e153d73c51923b279616421ff7bdbc39f924c06fb3ea3acabd66e094cd2aa8484604051610b21929190613302565b60405180910390a250505050565b600082815260076020526040902060010154610b4a81611ef4565b6108fb8383611efe565b6000600a83604051610b66919061310e565b908152602001604051809103902054905060008111610b975760405162461bcd60e51b815260040161085a9061312a565b33610ba18261127d565b6001600160a01b03161480610bc95750610bc96000805160206135778339815191523361156b565b610be55760405162461bcd60e51b815260040161085a906131cc565b6000600c84604051610bf7919061310e565b908152602001604051809103902083604051610c13919061310e565b908152604051908190036020018120805492151560ff1990931692909217909155610c3f90839061310e565b604051809103902083604051610c55919061310e565b604051908190038120907fc0e2013044a74cced904fe122352bb0d6951fff52b18e42b29d56445ed484eaf90600090a3505050565b6001600160a01b0381163314610cfa5760405162461bcd60e51b815260206004820152602f60248201527f416363657373436f6e74726f6c3a2063616e206f6e6c792072656e6f756e636560448201526e103937b632b9903337b91039b2b63360891b606482015260840161085a565b610d048282611f84565b5050565b600080516020613577833981519152610d2081611ef4565b610d2984611ce7565b610d455760405162461bcd60e51b815260040161085a90613151565b6000848152600960208181526040808420928301805460018101825590855282852001879055868452600a83018252808420805460ff1916871515908117909155600d835293819020889055805187815291820193909352909186917ff54c7a2b3e8f719b9e5f17002cbe480609e59bfc4e834e2117fb580e962a7f3691015b60405180910390a25050505050565b6108fb83838360405180602001604052806000815250611845565b6000600a84604051610e01919061310e565b90815260200160405180910390205490506000600a84604051610e24919061310e565b908152602001604051809103902054905060008211610e7c5760405162461bcd60e51b8152602060048201526014602482015273125cdcdd595c88111251081b9bdd08199bdd5b9960621b604482015260640161085a565b60008111610ec45760405162461bcd60e51b815260206004820152601560248201527414dd589a9958dd08111251081b9bdd08199bdd5b99605a1b604482015260640161085a565b33610ece8361127d565b6001600160a01b03161480610ef65750610ef66000805160206135778339815191523361156b565b610f4e5760405162461bcd60e51b815260206004820152602360248201527f4e6f7420617574686f72697a656420746f2069737375652063726564656e7469604482015262616c7360e81b606482015260840161085a565b600081815260096020908152604080832086845260080182528083208054600160ff199182168117909255600b909352928190208054909216909217905551610f9890859061310e565b604051809103902085604051610fae919061310e565b604051908190038120858252907f22e2b927c20f0d05f2a2a0fee0baa41ae9a4378ad7e48deb3acdc512edc6f0d39060200160405180910390a35050505050565b6000610ffa82611ce7565b6110165760405162461bcd60e51b815260040161085a90613151565b5060009081526009602052604090206006015460ff1690565b60096020526000908152604090208054600182015460028301805492936001600160a01b0390921692611061906130d4565b80601f016020809104026020016040519081016040528092919081815260200182805461108d906130d4565b80156110da5780601f106110af576101008083540402835291602001916110da565b820191906000526020600020905b8154815290600101906020018083116110bd57829003601f168201915b5050505050908060030154908060040180546110f5906130d4565b80601f0160208091040260200160405190810160405280929190818152602001828054611121906130d4565b801561116e5780601f106111435761010080835404028352916020019161116e565b820191906000526020600020905b81548152906001019060200180831161115157829003601f168201915b5050505060068301546007840154600b90940154929360ff9091169290915088565b7f0ce23c3e399818cfee81a7ab0880f714e53d7672b08df0fa62f2843416e1ea096111ba81611ef4565b6111c385611ce7565b6111df5760405162461bcd60e51b815260040161085a90613151565b60008581526009602090815260408083206003810180548552600b9093529220805460ff19169055859055600481016112188582613242565b50600781018390556000858152600b602052604090819020805460ff191660011790555186907ff8299908a81ffcd8766a4334de7c2c51817276f0af0c1efed877a6fbdab4e31d9061126d9088908890613330565b60405180910390a2505050505050565b6000818152600260205260408120546001600160a01b0316806107275760405162461bcd60e51b8152602060048201526018602482015277115490cdcc8c4e881a5b9d985b1a59081d1bdad95b88125160421b604482015260640161085a565b60006112e882611ce7565b6113045760405162461bcd60e51b815260040161085a90613151565b5060009081526009602052604090206003015490565b606061132583611ce7565b6113415760405162461bcd60e51b815260040161085a90613151565b6009600084815260200190815260200160002060050182604051611365919061310e565b9081526020016040518091039020805461137e906130d4565b80601f01602080910402602001604051908101604052809291908181526020018280546113aa906130d4565b80156113f75780601f106113cc576101008083540402835291602001916113f7565b820191906000526020600020905b8154815290600101906020018083116113da57829003601f168201915b5050505050905092915050565b600061140f83611ce7565b61142b5760405162461bcd60e51b815260040161085a90613151565b506000918252600960209081526040808420928452600a909201905290205460ff1690565b606061145b82611ce7565b6114775760405162461bcd60e51b815260040161085a90613151565b60008281526009602052604090206004018054610987906130d4565b60006001600160a01b0382166114fd5760405162461bcd60e51b815260206004820152602960248201527f4552433732313a2061646472657373207a65726f206973206e6f7420612076616044820152683634b21037bbb732b960b91b606482015260840161085a565b506001600160a01b031660009081526003602052604090205490565b600061152482611ce7565b6115405760405162461bcd60e51b815260040161085a90613151565b600082815260096020526040812060070154908190036115635750600092915050565b421192915050565b60009182526007602090815260408084206001600160a01b0393909316845291905290205460ff1690565b60606001805461073c906130d4565b610d04338383611feb565b60606115bb82611ce7565b6115d75760405162461bcd60e51b815260040161085a90613151565b60008281526009602081815260409283902090910180548351818402810184019094528084529091830182828015610a0057602002820191906000526020600020905b81548152602001906001019080831161161a5750505050509050919050565b6000600a8360405161164b919061310e565b90815260200160405180910390205490506000811161167c5760405162461bcd60e51b815260040161085a9061312a565b336116868261127d565b6001600160a01b031614806116ae57506116ae6000805160206135778339815191523361156b565b6116ca5760405162461bcd60e51b815260040161085a906131cc565b6001600c846040516116dc919061310e565b9081526020016040518091039020836040516116f8919061310e565b908152604051908190036020018120805492151560ff199093169290921790915561172490839061310e565b60405180910390208360405161173a919061310e565b604051908190038120907facf018e3d986505061ced8b0116f54b9723d7a6d3dffd530478096e040446b6a90600090a3505050565b60008051602061357783398151915261178781611ef4565b61179083611ce7565b6117ac5760405162461bcd60e51b815260040161085a90613151565b600083815260096020526040902060068101805484919060ff191660018360038111156117db576117db612d60565b021790555060028360038111156117f4576117f4612d60565b036118155760038101546000908152600b60205260409020805460ff191690555b837f1a8bd152fd799d25ca8cfb4a7b49ecd2c9cf642beab8ed9f8bf8516cdac9fcf084604051610b219190612d98565b61184f3383611d04565b61186b5760405162461bcd60e51b815260040161085a9061317f565b611877848484846120b9565b50505050565b6060610727826120ec565b6000600c8360405161189a919061310e565b9081526020016040518091039020826040516118b6919061310e565b9081526040519081900360200190205460ff16905092915050565b6000805160206135778339815191526118e981611ef4565b6000838152600d60205260408120549081900361193f5760405162461bcd60e51b815260206004820152601460248201527310dc9959195b9d1a585b081b9bdd08199bdd5b9960621b604482015260640161085a565b6000818152600960209081526040808320878452600a8101835292819020805460ff191687151590811790915581518881529283015283917f6e25d0c49e2b0084611e303a156bbb3ae30e22de74a47a68eeec2fbaefd9d1579101610dc5565b6000828152600760205260409020600101546119ba81611ef4565b6108fb8383611f84565b7f0ce23c3e399818cfee81a7ab0880f714e53d7672b08df0fa62f2843416e1ea096119ee81611ef4565b6000855111611a355760405162461bcd60e51b81526020600482015260136024820152724449442063616e6e6f7420626520656d70747960681b604482015260640161085a565b600a85604051611a45919061310e565b908152602001604051809103902054600014611a985760405162461bcd60e51b815260206004820152601260248201527144494420616c72656164792065786973747360701b604482015260640161085a565b6000611aa360085490565b9050611aaf87826121f4565b60008181526009602052604081209081556001810180546001600160a01b0319166001600160a01b038a1617905560028101611aeb8882613242565b506003810186905560048101611b018682613242565b5060068101805460ff19169055600781018490556040518290600a90611b28908a9061310e565b90815260408051918290036020908101909220929092556000888152600b909152908120805460ff19166001179055611b5f61220e565b9050611b75896001600160a01b03166014612220565b8260050182604051611b87919061310e565b90815260200160405180910390209081611ba19190613242565b50611bb0600880546001019055565b82896001600160a01b03167fa7c23bfba4ab20291e0417cb7934aed2749f8971deb0130342eb203a9e11ce928a8a8a604051611bee93929190613349565b60405180910390a3505050505050505050565b60006001600160e01b03198216637965db0b60e01b14806107275750610727826123c3565b611c2f81611ce7565b611c765760405162461bcd60e51b8152602060048201526018602482015277115490cdcc8c4e881a5b9d985b1a59081d1bdad95b88125160421b604482015260640161085a565b50565b600081815260046020526040902080546001600160a01b0319166001600160a01b0384169081179091558190611cae8261127d565b6001600160a01b03167f8c5be1e5ebec7d5bd14f71427d1e84f3dd0314c0f7b2291e5b200ac8c7c3b92560405160405180910390a45050565b6000908152600260205260409020546001600160a01b0316151590565b600080611d108361127d565b9050806001600160a01b0316846001600160a01b03161480611d5757506001600160a01b0380821660009081526005602090815260408083209388168352929052205460ff165b80611d7b5750836001600160a01b0316611d70846107bf565b6001600160a01b0316145b949350505050565b826001600160a01b0316611d968261127d565b6001600160a01b031614611dbc5760405162461bcd60e51b815260040161085a9061337e565b6001600160a01b038216611e1e5760405162461bcd60e51b8152602060048201526024808201527f4552433732313a207472616e7366657220746f20746865207a65726f206164646044820152637265737360e01b606482015260840161085a565b611e2b83838360016123e8565b826001600160a01b0316611e3e8261127d565b6001600160a01b031614611e645760405162461bcd60e51b815260040161085a9061337e565b600081815260046020908152604080832080546001600160a01b03199081169091556001600160a01b0387811680865260038552838620805460001901905590871680865283862080546001019055868652600290945282852080549092168417909155905184937fddf252ad1be2c89b69c2b068fc378daa952ba7f163c4a11628f55a4df523b3ef91a4505050565b611c768133612453565b611f08828261156b565b610d045760008281526007602090815260408083206001600160a01b03851684529091529020805460ff19166001179055611f403390565b6001600160a01b0316816001600160a01b0316837f2f8788117e7eff1d82e926ec794901d17c78024a50270940304540a733656f0d60405160405180910390a45050565b611f8e828261156b565b15610d045760008281526007602090815260408083206001600160a01b0385168085529252808320805460ff1916905551339285917ff6391f5c32d9c69d2a47ea670b442974b53935d1edc7fd64eb21e047a839171b9190a45050565b816001600160a01b0316836001600160a01b03160361204c5760405162461bcd60e51b815260206004820152601960248201527f4552433732313a20617070726f766520746f2063616c6c657200000000000000604482015260640161085a565b6001600160a01b03838116600081815260056020908152604080832094871680845294825291829020805460ff191686151590811790915591519182527f17307eab39ab6107e8899845ad3d59bd9653f200f220920489ca2b5937696c31910160405180910390a3505050565b6120c4848484611d83565b6120d0848484846124ac565b6118775760405162461bcd60e51b815260040161085a906133c3565b60606120f782611c26565b60008281526006602052604081208054612110906130d4565b80601f016020809104026020016040519081016040528092919081815260200182805461213c906130d4565b80156121895780601f1061215e57610100808354040283529160200191612189565b820191906000526020600020905b81548152906001019060200180831161216c57829003601f168201915b5050505050905060006121a760408051602081019091526000815290565b905080516000036121b9575092915050565b8151156121eb5780826040516020016121d3929190613415565b60405160208183030381529060405292505050919050565b611d7b846125ad565b610d04828260405180602001604052806000815250612620565b60604661221a81612653565b91505090565b6060600061222f83600261345a565b61223a906002613471565b67ffffffffffffffff81111561225257612252612a94565b6040519080825280601f01601f19166020018201604052801561227c576020820181803683370190505b509050600360fc1b8160008151811061229757612297613484565b60200101906001600160f81b031916908160001a905350600f60fb1b816001815181106122c6576122c6613484565b60200101906001600160f81b031916908160001a90535060006122ea84600261345a565b6122f5906001613471565b90505b600181111561236d576f181899199a1a9b1b9c1cb0b131b232b360811b85600f166010811061232957612329613484565b1a60f81b82828151811061233f5761233f613484565b60200101906001600160f81b031916908160001a90535060049490941c936123668161349a565b90506122f8565b5083156123bc5760405162461bcd60e51b815260206004820181905260248201527f537472696e67733a20686578206c656e67746820696e73756666696369656e74604482015260640161085a565b9392505050565b60006001600160e01b03198216632483248360e11b14806107275750610727826126e6565b6001600160a01b038416156118775760405162461bcd60e51b815260206004820152602b60248201527f536f756c626f756e644e46543a20746f6b656e207472616e736665722069732060448201526a1b9bdd08185b1b1bddd95960aa1b606482015260840161085a565b61245d828261156b565b610d045761246a81612736565b612475836020612220565b6040516020016124869291906134b1565b60408051601f198184030181529082905262461bcd60e51b825261085a91600401612a22565b60006001600160a01b0384163b156125a257604051630a85bd0160e11b81526001600160a01b0385169063150b7a02906124f0903390899088908890600401613526565b6020604051808303816000875af192505050801561252b575060408051601f3d908101601f1916820190925261252891810190613559565b60015b612588573d808015612559576040519150601f19603f3d011682016040523d82523d6000602084013e61255e565b606091505b5080516000036125805760405162461bcd60e51b815260040161085a906133c3565b805181602001fd5b6001600160e01b031916630a85bd0160e11b149050611d7b565b506001949350505050565b60606125b882611c26565b60006125cf60408051602081019091526000815290565b905060008151116125ef57604051806020016040528060008152506123bc565b806125f984612653565b60405160200161260a929190613415565b6040516020818303038152906040529392505050565b61262a838361274c565b61263760008484846124ac565b6108fb5760405162461bcd60e51b815260040161085a906133c3565b60606000612660836128c7565b600101905060008167ffffffffffffffff81111561268057612680612a94565b6040519080825280601f01601f1916602001820160405280156126aa576020820181803683370190505b5090508181016020015b600019016f181899199a1a9b1b9c1cb0b131b232b360811b600a86061a8153600a85049450846126b457509392505050565b60006001600160e01b031982166380ac58cd60e01b148061271757506001600160e01b03198216635b5e139f60e01b145b8061072757506301ffc9a760e01b6001600160e01b0319831614610727565b60606107276001600160a01b0383166014612220565b6001600160a01b0382166127a25760405162461bcd60e51b815260206004820181905260248201527f4552433732313a206d696e7420746f20746865207a65726f2061646472657373604482015260640161085a565b6127ab81611ce7565b156127f85760405162461bcd60e51b815260206004820152601c60248201527f4552433732313a20746f6b656e20616c7265616479206d696e74656400000000604482015260640161085a565b6128066000838360016123e8565b61280f81611ce7565b1561285c5760405162461bcd60e51b815260206004820152601c60248201527f4552433732313a20746f6b656e20616c7265616479206d696e74656400000000604482015260640161085a565b6001600160a01b038216600081815260036020908152604080832080546001019055848352600290915280822080546001600160a01b0319168417905551839291907fddf252ad1be2c89b69c2b068fc378daa952ba7f163c4a11628f55a4df523b3ef908290a45050565b60008072184f03e93ff9f4daa797ed6e38ed64bf6a1f0160401b83106129065772184f03e93ff9f4daa797ed6e38ed64bf6a1f0160401b830492506040015b6d04ee2d6d415b85acef81000000008310612932576d04ee2d6d415b85acef8100000000830492506020015b662386f26fc10000831061295057662386f26fc10000830492506010015b6305f5e1008310612968576305f5e100830492506008015b612710831061297c57612710830492506004015b6064831061298e576064830492506002015b600a83106107275760010192915050565b6001600160e01b031981168114611c7657600080fd5b6000602082840312156129c757600080fd5b81356123bc8161299f565b60005b838110156129ed5781810151838201526020016129d5565b50506000910152565b60008151808452612a0e8160208601602086016129d2565b601f01601f19169290920160200192915050565b6020815260006123bc60208301846129f6565b600060208284031215612a4757600080fd5b5035919050565b80356001600160a01b0381168114612a6557600080fd5b919050565b60008060408385031215612a7d57600080fd5b612a8683612a4e565b946020939093013593505050565b634e487b7160e01b600052604160045260246000fd5b600067ffffffffffffffff80841115612ac557612ac5612a94565b604051601f8501601f19908116603f01168101908282118183101715612aed57612aed612a94565b81604052809350858152868686011115612b0657600080fd5b858560208301376000602087830101525050509392505050565b600082601f830112612b3157600080fd5b6123bc83833560208501612aaa565b600060208284031215612b5257600080fd5b813567ffffffffffffffff811115612b6957600080fd5b611d7b84828501612b20565b600080600060608486031215612b8a57600080fd5b612b9384612a4e565b9250612ba160208501612a4e565b9150604084013590509250925092565b600080600060608486031215612bc657600080fd5b83359250602084013567ffffffffffffffff80821115612be557600080fd5b612bf187838801612b20565b93506040860135915080821115612c0757600080fd5b50612c1486828701612b20565b9150509250925092565b60008060408385031215612c3157600080fd5b82359150612c4160208401612a4e565b90509250929050565b60008060408385031215612c5d57600080fd5b823567ffffffffffffffff80821115612c7557600080fd5b612c8186838701612b20565b93506020850135915080821115612c9757600080fd5b50612ca485828601612b20565b9150509250929050565b80358015158114612a6557600080fd5b600080600060608486031215612cd357600080fd5b8335925060208401359150612cea60408501612cae565b90509250925092565b600080600060608486031215612d0857600080fd5b833567ffffffffffffffff80821115612d2057600080fd5b612d2c87838801612b20565b94506020860135915080821115612d4257600080fd5b50612d4f86828701612b20565b925050604084013590509250925092565b634e487b7160e01b600052602160045260246000fd5b60048110612d9457634e487b7160e01b600052602160045260246000fd5b9052565b602081016107278284612d76565b8881526001600160a01b038816602082015261010060408201819052600090612dd18382018a6129f6565b90508760608401528281036080840152612deb81886129f6565b915050612dfb60a0830186612d76565b60c082019390935260e001529695505050505050565b60008060008060808587031215612e2757600080fd5b8435935060208501359250604085013567ffffffffffffffff811115612e4c57600080fd5b612e5887828801612b20565b949793965093946060013593505050565b60008060408385031215612e7c57600080fd5b82359150602083013567ffffffffffffffff811115612e9a57600080fd5b612ca485828601612b20565b60008060408385031215612eb957600080fd5b50508035926020909101359150565b600060208284031215612eda57600080fd5b6123bc82612a4e565b60008060408385031215612ef657600080fd5b612eff83612a4e565b9150612c4160208401612cae565b6020808252825182820181905260009190848201906040850190845b81811015612f4557835183529284019291840191600101612f29565b50909695505050505050565b60008060408385031215612f6457600080fd5b82359150602083013560048110612f7a57600080fd5b809150509250929050565b60008060008060808587031215612f9b57600080fd5b612fa485612a4e565b9350612fb260208601612a4e565b925060408501359150606085013567ffffffffffffffff811115612fd557600080fd5b8501601f81018713612fe657600080fd5b612ff587823560208401612aaa565b91505092959194509250565b6000806040838503121561301457600080fd5b82359150612c4160208401612cae565b600080600080600060a0868803121561303c57600080fd5b61304586612a4e565b9450602086013567ffffffffffffffff8082111561306257600080fd5b61306e89838a01612b20565b955060408801359450606088013591508082111561308b57600080fd5b5061309888828901612b20565b95989497509295608001359392505050565b600080604083850312156130bd57600080fd5b6130c683612a4e565b9150612c4160208401612a4e565b600181811c908216806130e857607f821691505b60208210810361310857634e487b7160e01b600052602260045260246000fd5b50919050565b600082516131208184602087016129d2565b9190910192915050565b6020808252600d908201526c111251081b9bdd08199bdd5b99609a1b604082015260600190565b602080825260149082015273151bdad95b88191bd95cc81b9bdd08195e1a5cdd60621b604082015260600190565b6020808252602d908201527f4552433732313a2063616c6c6572206973206e6f7420746f6b656e206f776e6560408201526c1c881bdc88185c1c1c9bdd9959609a1b606082015260800190565b6020808252600e908201526d139bdd08185d5d1a1bdc9a5e995960921b604082015260600190565b601f8211156108fb57600081815260208120601f850160051c8101602086101561321b5750805b601f850160051c820191505b8181101561323a57828155600101613227565b505050505050565b815167ffffffffffffffff81111561325c5761325c612a94565b6132708161326a84546130d4565b846131f4565b602080601f8311600181146132a5576000841561328d5750858301515b600019600386901b1c1916600185901b17855561323a565b600085815260208120601f198616915b828110156132d4578886015182559484019460019091019084016132b5565b50858210156132f25787850151600019600388901b60f8161c191681555b5050505050600190811b01905550565b60408152600061331560408301856129f6565b828103602084015261332781856129f6565b95945050505050565b828152604060208201526000611d7b60408301846129f6565b60608152600061335c60608301866129f6565b846020840152828103604084015261337481856129f6565b9695505050505050565b60208082526025908201527f4552433732313a207472616e736665722066726f6d20696e636f72726563742060408201526437bbb732b960d91b606082015260800190565b60208082526032908201527f4552433732313a207472616e7366657220746f206e6f6e20455243373231526560408201527131b2b4bb32b91034b6b83632b6b2b73a32b960711b606082015260800190565b600083516134278184602088016129d2565b83519083019061343b8183602088016129d2565b01949350505050565b634e487b7160e01b600052601160045260246000fd5b808202811582820484141761072757610727613444565b8082018082111561072757610727613444565b634e487b7160e01b600052603260045260246000fd5b6000816134a9576134a9613444565b506000190190565b7f416363657373436f6e74726f6c3a206163636f756e74200000000000000000008152600083516134e98160178501602088016129d2565b7001034b99036b4b9b9b4b733903937b6329607d1b601791840191820152835161351a8160288401602088016129d2565b01602801949350505050565b6001600160a01b0385811682528416602082015260408101839052608060608201819052600090613374908301846129f6565b60006020828403121561356b57600080fd5b81516123bc8161299f56fe659d1caa2ecc59fb398ac59d0f2b9fda0705098c7ff7d2e769f458972b1e82bda2646970667358221220005cc5cbc0a26bc9e65007aedcfda7a08673b1bfaa0de206c33b65b0d173de2764736f6c63430008130033",
  "linkReferences": {},
  "deployedLinkReferences": {}
}