{
  "_format": "hh-sol-artifact-1",
  "contractName": "SoulboundNFT",
  "sourceName": "contracts/identity/SoulboundNFT.sol",
  "abi": [
    {
      "inputs": [],
      "stateMutability": "nonpayable",
      "type": "constructor"
    },
    {
      "anonymous": false,
      "inputs": [
        {
          "indexed": true,
          "internalType": "address",
          "name": "owner",
          "type": "address"
        },
        {
          "indexed": true,
          "internalType": "address",
          "name": "approved",
          "type": "address"
        },
        {
          "indexed": true,
          "internalType": "uint256",
          "name": "tokenId",
          "type": "uint256"
        }
      ],
      "name": "Approval",
      "type": "event"
    },
    {
      "anonymous": false,
      "inputs": [
        {
          "indexed": true,
          "internalType": "address",
          "name": "owner",
          "type": "address"
        },
        {
          "indexed": true,
          "internalType": "address",
          "name": "operator",
          "type": "address"
        },
        {
          "indexed": false,
          "internalType": "bool",
          "name": "approved",
          "type": "bool"
        }
      ],
      "name": "ApprovalForAll",
      "type": "event"
    },
    {
      "anonymous": false,
      "inputs": [
        {
          "indexed": false,
          "internalType": "uint256",
          "name": "_fromTokenId",
          "type": "uint256"
        },
        {
          "indexed": false,
          "internalType": "uint256",
          "name": "_toTokenId",
          "type": "uint256"
        }
      ],
      "name": "BatchMetadataUpdate",
      "type": "event"
    },
    {
      "anonymous": false,
      "inputs": [
        {
          "indexed": true,
          "internalType": "uint256",
          "name": "tokenId",
          "type": "uint256"
        },
        {
          "indexed": false,
          "internalType": "string",
          "name": "chainId",
          "type": "string"
        },
        {
          "indexed": false,
          "internalType": "string",
          "name": "chainAddress",
          "type": "string"
        }
      ],
      "name": "ChainIdentityAdded",
      "type": "event"
    },
    {
      "anonymous": false,
      "inputs": [
        {
          "indexed": true,
          "internalType": "uint256",
          "name": "tokenId",
          "type": "uint256"
        },
        {
          "indexed": false,
          "internalType": "bytes32",
          "name": "newCredentialHash",
          "type": "bytes32"
        },
        {
          "indexed": false,
          "internalType": "string",
          "name": "newCredentialCID",
          "type": "string"
        }
      ],
      "name": "CredentialUpdated",
      "type": "event"
    },
    {
      "anonymous": false,
      "inputs": [
        {
          "indexed": true,
          "internalType": "address",
          "name": "entity",
          "type": "address"
        },
        {
          "indexed": true,
          "internalType": "uint256",
          "name": "tokenId",
          "type": "uint256"
        },
        {
          "indexed": false,
          "internalType": "string",
          "name": "did",
          "type": "string"
        },
        {
          "indexed": false,
          "internalType": "bytes32",
          "name": "credentialHash",
          "type": "bytes32"
        },
        {
          "indexed": false,
          "internalType": "string",
          "name": "credentialCID",
          "type": "string"
        }
      ],
      "name": "IdentityVerified",
      "type": "event"
    },
    {
      "anonymous": false,
      "inputs": [
        {
          "indexed": false,
          "internalType": "uint256",
          "name": "_tokenId",
          "type": "uint256"
        }
      ],
      "name": "MetadataUpdate",
      "type": "event"
    },
    {
      "anonymous": false,
      "inputs": [
        {
          "indexed": true,
          "internalType": "bytes32",
          "name": "role",
          "type": "bytes32"
        },
        {
          "indexed": true,
          "internalType": "bytes32",
          "name": "previousAdminRole",
          "type": "bytes32"
        },
        {
          "indexed": true,
          "internalType": "bytes32",
          "name": "newAdminRole",
          "type": "bytes32"
        }
      ],
      "name": "RoleAdminChanged",
      "type": "event"
    },
    {
      "anonymous": false,
      "inputs": [
        {
          "indexed": true,
          "internalType": "bytes32",
          "name": "role",
          "type": "bytes32"
        },
        {
          "indexed": true,
          "internalType": "address",
          "name": "account",
          "type": "address"
        },
        {
          "indexed": true,
          "internalType": "address",
          "name": "sender",
          "type": "address"
        }
      ],
      "name": "RoleGranted",
      "type": "event"
    },
    {
      "anonymous": false,
      "inputs": [
        {
          "indexed": true,
          "internalType": "bytes32",
          "name": "role",
          "type": "bytes32"
        },
        {
          "indexed": true,
          "internalType": "address",
          "name": "account",
          "type": "address"
        },
        {
          "indexed": true,
          "internalType": "address",
          "name": "sender",
          "type": "address"
        }
      ],
      "name": "RoleRevoked",
      "type": "event"
    },
    {
      "anonymous": false,
      "inputs": [
        {
          "indexed": true,
          "internalType": "address",
          "name": "from",
          "type": "address"
        },
        {
          "indexed": true,
          "internalType": "address",
          "name": "to",
          "type": "address"
        },
        {
          "indexed": true,
          "internalType": "uint256",
          "name": "tokenId",
          "type": "uint256"
        }
      ],
      "name": "Transfer",
      "type": "event"
    },
    {
      "inputs": [],
      "name": "DEFAULT_ADMIN_ROLE",
      "outputs": [
        {
          "internalType": "bytes32",
          "name": "",
          "type": "bytes32"
        }
      ],
      "stateMutability": "view",
      "type": "function"
    },
    {
      "inputs": [],
      "name": "VERIFIER_ROLE",
      "outputs": [
        {
          "internalType": "bytes32",
          "name": "",
          "type": "bytes32"
        }
      ],
      "stateMutability": "view",
      "type": "function"
    },
    {
      "inputs": [
        {
          "internalType": "uint256",
          "name": "tokenId",
          "type": "uint256"
        },
        {
          "internalType": "string",
          "name": "chainId",
          "type": "string"
        },
        {
          "internalType": "string",
          "name": "chainAddress",
          "type": "string"
        }
      ],
      "name": "addChainIdentity",
      "outputs": [],
      "stateMutability": "nonpayable",
      "type": "function"
    },
    {
      "inputs": [
        {
          "internalType": "address",
          "name": "to",
          "type": "address"
        },
        {
          "internalType": "uint256",
          "name": "tokenId",
          "type": "uint256"
        }
      ],
      "name": "approve",
      "outputs": [],
      "stateMutability": "nonpayable",
      "type": "function"
    },
    {
      "inputs": [
        {
          "internalType": "address",
          "name": "owner",
          "type": "address"
        }
      ],
      "name": "balanceOf",
      "outputs": [
        {
          "internalType": "uint256",
          "name": "",
          "type": "uint256"
        }
      ],
      "stateMutability": "view",
      "type": "function"
    },
    {
      "inputs": [
        {
          "internalType": "string",
          "name": "",
          "type": "string"
        }
      ],
      "name": "didToTokenId",
      "outputs": [
        {
          "internalType": "uint256",
          "name": "",
          "type": "uint256"
        }
      ],
      "stateMutability": "view",
      "type": "function"
    },
    {
      "inputs": [
        {
          "internalType": "uint256",
          "name": "tokenId",
          "type": "uint256"
        }
      ],
      "name": "getApproved",
      "outputs": [
        {
          "internalType": "address",
          "name": "",
          "type": "address"
        }
      ],
      "stateMutability": "view",
      "type": "function"
    },
    {
      "inputs": [
        {
          "internalType": "uint256",
          "name": "tokenId",
          "type": "uint256"
        },
        {
          "internalType": "string",
          "name": "chainId",
          "type": "string"
        }
      ],
      "name": "getChainAddress",
      "outputs": [
        {
          "internalType": "string",
          "name": "",
          "type": "string"
        }
      ],
      "stateMutability": "view",
      "type": "function"
    },
    {
      "inputs": [
        {
          "internalType": "uint256",
          "name": "tokenId",
          "type": "uint256"
        }
      ],
      "name": "getCredentialCID",
      "outputs": [
        {
          "internalType": "string",
          "name": "",
          "type": "string"
        }
      ],
      "stateMutability": "view",
      "type": "function"
    },
    {
      "inputs": [
        {
          "internalType": "uint256",
          "name": "tokenId",
          "type": "uint256"
        }
      ],
      "name": "getCredentialHash",
      "outputs": [
        {
          "internalType": "bytes32",
          "name": "",
          "type": "bytes32"
        }
      ],
      "stateMutability": "view",
      "type": "function"
    },
    {
      "inputs": [
        {
          "internalType": "uint256",
          "name": "tokenId",
          "type": "uint256"
        }
      ],
      "name": "getDID",
      "outputs": [
        {
          "internalType": "string",
          "name": "",
          "type": "string"
        }
      ],
      "stateMutability": "view",
      "type": "function"
    },
    {
      "inputs": [
        {
          "internalType": "bytes32",
          "name": "role",
          "type": "bytes32"
        }
      ],
      "name": "getRoleAdmin",
      "outputs": [
        {
          "internalType": "bytes32",
          "name": "",
          "type": "bytes32"
        }
      ],
      "stateMutability": "view",
      "type": "function"
    },
    {
      "inputs": [
        {
          "internalType": "string",
          "name": "did",
          "type": "string"
        }
      ],
      "name": "getTokenIdByDID",
      "outputs": [
        {
          "internalType": "uint256",
          "name": "",
          "type": "uint256"
        }
      ],
      "stateMutability": "view",
      "type": "function"
    },
    {
      "inputs": [
        {
          "internalType": "bytes32",
          "name": "role",
          "type": "bytes32"
        },
        {
          "internalType": "address",
          "name": "account",
          "type": "address"
        }
      ],
      "name": "grantRole",
      "outputs": [],
      "stateMutability": "nonpayable",
      "type": "function"
    },
    {
      "inputs": [
        {
          "internalType": "bytes32",
          "name": "role",
          "type": "bytes32"
        },
        {
          "internalType": "address",
          "name": "account",
          "type": "address"
        }
      ],
      "name": "hasRole",
      "outputs": [
        {
          "internalType": "bool",
          "name": "",
          "type": "bool"
        }
      ],
      "stateMutability": "view",
      "type": "function"
    },
    {
      "inputs": [
        {
          "internalType": "address",
          "name": "owner",
          "type": "address"
        },
        {
          "internalType": "address",
          "name": "operator",
          "type": "address"
        }
      ],
      "name": "isApprovedForAll",
      "outputs": [
        {
          "internalType": "bool",
          "name": "",
          "type": "bool"
        }
      ],
      "stateMutability": "view",
      "type": "function"
    },
    {
      "inputs": [],
      "name": "name",
      "outputs": [
        {
          "internalType": "string",
          "name": "",
          "type": "string"
        }
      ],
      "stateMutability": "view",
      "type": "function"
    },
    {
      "inputs": [
        {
          "internalType": "uint256",
          "name": "tokenId",
          "type": "uint256"
        }
      ],
      "name": "ownerOf",
      "outputs": [
        {
          "internalType": "address",
          "name": "",
          "type": "address"
        }
      ],
      "stateMutability": "view",
      "type": "function"
    },
    {
      "inputs": [
        {
          "internalType": "bytes32",
          "name": "role",
          "type": "bytes32"
        },
        {
          "internalType": "address",
          "name": "account",
          "type": "address"
        }
      ],
      "name": "renounceRole",
      "outputs": [],
      "stateMutability": "nonpayable",
      "type": "function"
    },
    {
      "inputs": [
        {
          "internalType": "bytes32",
          "name": "role",
          "type": "bytes32"
        },
        {
          "internalType": "address",
          "name": "account",
          "type": "address"
        }
      ],
      "name": "revokeRole",
      "outputs": [],
      "stateMutability": "nonpayable",
      "type": "function"
    },
    {
      "inputs": [
        {
          "internalType": "address",
          "name": "from",
          "type": "address"
        },
        {
          "internalType": "address",
          "name": "to",
          "type": "address"
        },
        {
          "internalType": "uint256",
          "name": "tokenId",
          "type": "uint256"
        }
      ],
      "name": "safeTransferFrom",
      "outputs": [],
      "stateMutability": "nonpayable",
      "type": "function"
    },
    {
      "inputs": [
        {
          "internalType": "address",
          "name": "from",
          "type": "address"
        },
        {
          "internalType": "address",
          "name": "to",
          "type": "address"
        },
        {
          "internalType": "uint256",
          "name": "tokenId",
          "type": "uint256"
        },
        {
          "internalType": "bytes",
          "name": "data",
          "type": "bytes"
        }
      ],
      "name": "safeTransferFrom",
      "outputs": [],
      "stateMutability": "nonpayable",
      "type": "function"
    },
    {
      "inputs": [
        {
          "internalType": "address",
          "name": "operator",
          "type": "address"
        },
        {
          "internalType": "bool",
          "name": "approved",
          "type": "bool"
        }
      ],
      "name": "setApprovalForAll",
      "outputs": [],
      "stateMutability": "nonpayable",
      "type": "function"
    },
    {
      "inputs": [
        {
          "internalType": "bytes4",
          "name": "interfaceId",
          "type": "bytes4"
        }
      ],
      "name": "supportsInterface",
      "outputs": [
        {
          "internalType": "bool",
          "name": "",
          "type": "bool"
        }
      ],
      "stateMutability": "view",
      "type": "function"
    },
    {
      "inputs": [],
      "name": "symbol",
      "outputs": [
        {
          "internalType": "string",
          "name": "",
          "type": "string"
        }
      ],
      "stateMutability": "view",
      "type": "function"
    },
    {
      "inputs": [
        {
          "internalType": "uint256",
          "name": "",
          "type": "uint256"
        }
      ],
      "name": "tokenHierarchy",
      "outputs": [
        {
          "internalType": "uint256",
          "name": "parentId",
          "type": "uint256"
        },
        {
          "internalType": "address",
          "name": "owner",
          "type": "address"
        },
        {
          "internalType": "string",
          "name": "did",
          "type": "string"
        },
        {
          "internalType": "bytes32",
          "name": "credentialHash",
          "type": "bytes32"
        },
        {
          "internalType": "string",
          "name": "credentialCID",
          "type": "string"
        }
      ],
      "stateMutability": "view",
      "type": "function"
    },
    {
      "inputs": [
        {
          "internalType": "uint256",
          "name": "tokenId",
          "type": "uint256"
        }
      ],
      "name": "tokenURI",
      "outputs": [
        {
          "internalType": "string",
          "name": "",
          "type": "string"
        }
      ],
      "stateMutability": "view",
      "type": "function"
    },
    {
      "inputs": [
        {
          "internalType": "address",
          "name": "from",
          "type": "address"
        },
        {
          "internalType": "address",
          "name": "to",
          "type": "address"
        },
        {
          "internalType": "uint256",
          "name": "tokenId",
          "type": "uint256"
        }
      ],
      "name": "transferFrom",
      "outputs": [],
      "stateMutability": "nonpayable",
      "type": "function"
    },
    {
      "inputs": [
        {
          "internalType": "uint256",
          "name": "tokenId",
          "type": "uint256"
        },
        {
          "internalType": "bytes32",
          "name": "newCredentialHash",
          "type": "bytes32"
        },
        {
          "internalType": "string",
          "name": "newCredentialCID",
          "type": "string"
        }
      ],
      "name": "updateCredential",
      "outputs": [],
      "stateMutability": "nonpayable",
      "type": "function"
    },
    {
      "inputs": [
        {
          "internalType": "address",
          "name": "entity",
          "type": "address"
        },
        {
          "internalType": "string",
          "name": "did",
          "type": "string"
        },
        {
          "internalType": "bytes32",
          "name": "credentialHash",
          "type": "bytes32"
        },
        {
          "internalType": "string",
          "name": "credentialCID",
          "type": "string"
        }
      ],
      "name": "verifyIdentity",
      "outputs": [],
      "stateMutability": "nonpayable",
      "type": "function"
    }
  ],
  "bytecode": "0x60806040523480156200001157600080fd5b5060405180604001604052806011815260200170536f756c626f756e644964656e7469747960781b8152506040518060400160405280600481526020016314d0925160e21b81525081600090816200006a919062000207565b50600162000079828262000207565b506200008b91506000905033620000bd565b620000b77f0ce23c3e399818cfee81a7ab0880f714e53d7672b08df0fa62f2843416e1ea0933620000bd565b620002d3565b60008281526007602090815260408083206001600160a01b038516845290915290205460ff166200015e5760008281526007602090815260408083206001600160a01b03851684529091529020805460ff191660011790556200011d3390565b6001600160a01b0316816001600160a01b0316837f2f8788117e7eff1d82e926ec794901d17c78024a50270940304540a733656f0d60405160405180910390a45b5050565b634e487b7160e01b600052604160045260246000fd5b600181811c908216806200018d57607f821691505b602082108103620001ae57634e487b7160e01b600052602260045260246000fd5b50919050565b601f8211156200020257600081815260208120601f850160051c81016020861015620001dd5750805b601f850160051c820191505b81811015620001fe57828155600101620001e9565b5050505b505050565b81516001600160401b0381111562000223576200022362000162565b6200023b8162000234845462000178565b84620001b4565b602080601f8311600181146200027357600084156200025a5750858301515b600019600386901b1c1916600185901b178555620001fe565b600085815260208120601f198616915b82811015620002a45788860151825594840194600190910190840162000283565b5085821015620002c35787850151600019600388901b60f8161c191681555b5050505050600190811b01905550565b6127d180620002e36000396000f3fe608060405234801561001057600080fd5b50600436106101da5760003560e01c8063658aeb7811610104578063a217fddf116100a2578063d547741f11610071578063d547741f1461042f578063e7705db614610442578063e985e9c514610469578063faf9ee69146104a557600080fd5b8063a217fddf146103ee578063a22cb465146103f6578063b88d4fde14610409578063c87b56dd1461041c57600080fd5b806370a08231116100de57806370a082311461039557806391d14854146103a857806395d89b41146103bb5780639691019a146103c357600080fd5b8063658aeb781461035c5780636c8c19371461036f5780636ffec4751461038257600080fd5b8063248a9ca31161017c57806336568abe1161014b57806336568abe146102ff57806342842e0e146103125780635d4e7baf146103255780636352211e1461034957600080fd5b8063248a9ca3146102a35780632a50d9da146102c65780632acafae8146102d95780632f2ff15d146102ec57600080fd5b8063095ea7b3116101b8578063095ea7b3146102475780631285a3271461025c5780631fafb68f1461027d57806323b872dd1461029057600080fd5b806301ffc9a7146101df57806306fdde0314610207578063081812fc1461021c575b600080fd5b6101f26101ed366004611e69565b6104b8565b60405190151581526020015b60405180910390f35b61020f6104c9565b6040516101fe9190611ed6565b61022f61022a366004611ee9565b61055b565b6040516001600160a01b0390911681526020016101fe565b61025a610255366004611f1e565b610582565b005b61026f61026a366004611ff4565b61069c565b6040519081526020016101fe565b61020f61028b366004611ee9565b610700565b61025a61029e366004612029565b6107c8565b61026f6102b1366004611ee9565b60009081526007602052604090206001015490565b61025a6102d4366004612065565b6107f9565b61025a6102e73660046120d2565b6108f3565b61025a6102fa366004612118565b6109a7565b61025a61030d366004612118565b6109cc565b61025a610320366004612029565b610a4a565b610338610333366004611ee9565b610a65565b6040516101fe959493929190612144565b61022f610357366004611ee9565b610bae565b61026f61036a366004611ee9565b610c0e565b61020f61037d366004612192565b610c4b565b61020f610390366004611ee9565b610d35565b61026f6103a33660046121d9565b610d78565b6101f26103b6366004612118565b610dfe565b61020f610e29565b61026f6103d1366004611ff4565b8051602081830181018051600a8252928201919093012091525481565b61026f600081565b61025a6104043660046121f4565b610e38565b61025a610417366004612230565b610e43565b61020f61042a366004611ee9565b610e7b565b61025a61043d366004612118565b610e86565b61026f7f0ce23c3e399818cfee81a7ab0880f714e53d7672b08df0fa62f2843416e1ea0981565b6101f26104773660046122ac565b6001600160a01b03918216600090815260056020908152604080832093909416825291909152205460ff1690565b61025a6104b33660046122d6565b610eab565b60006104c3826110b5565b92915050565b6060600080546104d890612348565b80601f016020809104026020016040519081016040528092919081815260200182805461050490612348565b80156105515780601f1061052657610100808354040283529160200191610551565b820191906000526020600020905b81548152906001019060200180831161053457829003601f168201915b5050505050905090565b6000610566826110da565b506000908152600460205260409020546001600160a01b031690565b600061058d82610bae565b9050806001600160a01b0316836001600160a01b0316036105ff5760405162461bcd60e51b815260206004820152602160248201527f4552433732313a20617070726f76616c20746f2063757272656e74206f776e656044820152603960f91b60648201526084015b60405180910390fd5b336001600160a01b038216148061061b575061061b8133610477565b61068d5760405162461bcd60e51b815260206004820152603d60248201527f4552433732313a20617070726f76652063616c6c6572206973206e6f7420746f60448201527f6b656e206f776e6572206f7220617070726f76656420666f7220616c6c00000060648201526084016105f6565b610697838361112d565b505050565b600080600a836040516106af9190612382565b9081526020016040518091039020549050806000036104c35760405162461bcd60e51b815260206004820152600d60248201526c111251081b9bdd08199bdd5b99609a1b60448201526064016105f6565b606061070b8261119b565b6107275760405162461bcd60e51b81526004016105f69061239e565b6000828152600960205260409020600201805461074390612348565b80601f016020809104026020016040519081016040528092919081815260200182805461076f90612348565b80156107bc5780601f10610791576101008083540402835291602001916107bc565b820191906000526020600020905b81548152906001019060200180831161079f57829003601f168201915b50505050509050919050565b6107d233826111b8565b6107ee5760405162461bcd60e51b81526004016105f6906123cc565b610697838383611237565b6108028361119b565b61081e5760405162461bcd60e51b81526004016105f69061239e565b3361082884610bae565b6001600160a01b0316146108745760405162461bcd60e51b81526020600482015260136024820152722737ba103a3432903a37b5b2b71037bbb732b960691b60448201526064016105f6565b60008381526009602052604090819020905182906005830190610898908690612382565b908152602001604051809103902090816108b29190612467565b50837f909e153d73c51923b279616421ff7bdbc39f924c06fb3ea3acabd66e094cd2aa84846040516108e5929190612527565b60405180910390a250505050565b7f0ce23c3e399818cfee81a7ab0880f714e53d7672b08df0fa62f2843416e1ea0961091d816113a8565b6109268461119b565b6109425760405162461bcd60e51b81526004016105f69061239e565b600084815260096020526040902060038101849055600481016109658482612467565b50847ff8299908a81ffcd8766a4334de7c2c51817276f0af0c1efed877a6fbdab4e31d8585604051610998929190612555565b60405180910390a25050505050565b6000828152600760205260409020600101546109c2816113a8565b61069783836113b2565b6001600160a01b0381163314610a3c5760405162461bcd60e51b815260206004820152602f60248201527f416363657373436f6e74726f6c3a2063616e206f6e6c792072656e6f756e636560448201526e103937b632b9903337b91039b2b63360891b60648201526084016105f6565b610a468282611438565b5050565b61069783838360405180602001604052806000815250610e43565b60096020526000908152604090208054600182015460028301805492936001600160a01b0390921692610a9790612348565b80601f0160208091040260200160405190810160405280929190818152602001828054610ac390612348565b8015610b105780601f10610ae557610100808354040283529160200191610b10565b820191906000526020600020905b815481529060010190602001808311610af357829003601f168201915b505050505090806003015490806004018054610b2b90612348565b80601f0160208091040260200160405190810160405280929190818152602001828054610b5790612348565b8015610ba45780601f10610b7957610100808354040283529160200191610ba4565b820191906000526020600020905b815481529060010190602001808311610b8757829003601f168201915b5050505050905085565b6000818152600260205260408120546001600160a01b0316806104c35760405162461bcd60e51b8152602060048201526018602482015277115490cdcc8c4e881a5b9d985b1a59081d1bdad95b88125160421b60448201526064016105f6565b6000610c198261119b565b610c355760405162461bcd60e51b81526004016105f69061239e565b5060009081526009602052604090206003015490565b6060610c568361119b565b610c725760405162461bcd60e51b81526004016105f69061239e565b6009600084815260200190815260200160002060050182604051610c969190612382565b90815260200160405180910390208054610caf90612348565b80601f0160208091040260200160405190810160405280929190818152602001828054610cdb90612348565b8015610d285780601f10610cfd57610100808354040283529160200191610d28565b820191906000526020600020905b815481529060010190602001808311610d0b57829003601f168201915b5050505050905092915050565b6060610d408261119b565b610d5c5760405162461bcd60e51b81526004016105f69061239e565b6000828152600960205260409020600401805461074390612348565b60006001600160a01b038216610de25760405162461bcd60e51b815260206004820152602960248201527f4552433732313a2061646472657373207a65726f206973206e6f7420612076616044820152683634b21037bbb732b960b91b60648201526084016105f6565b506001600160a01b031660009081526003602052604090205490565b60009182526007602090815260408084206001600160a01b0393909316845291905290205460ff1690565b6060600180546104d890612348565b610a4633838361149f565b610e4d33836111b8565b610e695760405162461bcd60e51b81526004016105f6906123cc565b610e758484848461156d565b50505050565b60606104c3826115a0565b600082815260076020526040902060010154610ea1816113a8565b6106978383611438565b7f0ce23c3e399818cfee81a7ab0880f714e53d7672b08df0fa62f2843416e1ea09610ed5816113a8565b6000845111610f1c5760405162461bcd60e51b81526020600482015260136024820152724449442063616e6e6f7420626520656d70747960681b60448201526064016105f6565b600a84604051610f2c9190612382565b908152602001604051809103902054600014610f7f5760405162461bcd60e51b815260206004820152601260248201527144494420616c72656164792065786973747360701b60448201526064016105f6565b6000610f8a60085490565b9050610f9686826116a8565b60008181526009602052604081209081556001810180546001600160a01b0319166001600160a01b03891617905560028101610fd28782612467565b506003810185905560048101610fe88582612467565b5081600a87604051610ffa9190612382565b9081526040519081900360200190205560006110146116c2565b905061102a886001600160a01b031660146116d4565b826005018260405161103c9190612382565b908152602001604051809103902090816110569190612467565b50611065600880546001019055565b82886001600160a01b03167fa7c23bfba4ab20291e0417cb7934aed2749f8971deb0130342eb203a9e11ce928989896040516110a39392919061256e565b60405180910390a35050505050505050565b60006001600160e01b03198216637965db0b60e01b14806104c357506104c382611877565b6110e38161119b565b61112a5760405162461bcd60e51b8152602060048201526018602482015277115490cdcc8c4e881a5b9d985b1a59081d1bdad95b88125160421b60448201526064016105f6565b50565b600081815260046020526040902080546001600160a01b0319166001600160a01b038416908117909155819061116282610bae565b6001600160a01b03167f8c5be1e5ebec7d5bd14f71427d1e84f3dd0314c0f7b2291e5b200ac8c7c3b92560405160405180910390a45050565b6000908152600260205260409020546001600160a01b0316151590565b6000806111c483610bae565b9050806001600160a01b0316846001600160a01b0316148061120b57506001600160a01b0380821660009081526005602090815260408083209388168352929052205460ff165b8061122f5750836001600160a01b03166112248461055b565b6001600160a01b0316145b949350505050565b826001600160a01b031661124a82610bae565b6001600160a01b0316146112705760405162461bcd60e51b81526004016105f6906125a3565b6001600160a01b0382166112d25760405162461bcd60e51b8152602060048201526024808201527f4552433732313a207472616e7366657220746f20746865207a65726f206164646044820152637265737360e01b60648201526084016105f6565b6112df838383600161189c565b826001600160a01b03166112f282610bae565b6001600160a01b0316146113185760405162461bcd60e51b81526004016105f6906125a3565b600081815260046020908152604080832080546001600160a01b03199081169091556001600160a01b0387811680865260038552838620805460001901905590871680865283862080546001019055868652600290945282852080549092168417909155905184937fddf252ad1be2c89b69c2b068fc378daa952ba7f163c4a11628f55a4df523b3ef91a4505050565b61112a8133611907565b6113bc8282610dfe565b610a465760008281526007602090815260408083206001600160a01b03851684529091529020805460ff191660011790556113f43390565b6001600160a01b0316816001600160a01b0316837f2f8788117e7eff1d82e926ec794901d17c78024a50270940304540a733656f0d60405160405180910390a45050565b6114428282610dfe565b15610a465760008281526007602090815260408083206001600160a01b0385168085529252808320805460ff1916905551339285917ff6391f5c32d9c69d2a47ea670b442974b53935d1edc7fd64eb21e047a839171b9190a45050565b816001600160a01b0316836001600160a01b0316036115005760405162461bcd60e51b815260206004820152601960248201527f4552433732313a20617070726f766520746f2063616c6c65720000000000000060448201526064016105f6565b6001600160a01b03838116600081815260056020908152604080832094871680845294825291829020805460ff191686151590811790915591519182527f17307eab39ab6107e8899845ad3d59bd9653f200f220920489ca2b5937696c31910160405180910390a3505050565b611578848484611237565b61158484848484611960565b610e755760405162461bcd60e51b81526004016105f6906125e8565b60606115ab826110da565b600082815260066020526040812080546115c490612348565b80601f01602080910402602001604051908101604052809291908181526020018280546115f090612348565b801561163d5780601f106116125761010080835404028352916020019161163d565b820191906000526020600020905b81548152906001019060200180831161162057829003601f168201915b50505050509050600061165b60408051602081019091526000815290565b9050805160000361166d575092915050565b81511561169f57808260405160200161168792919061263a565b60405160208183030381529060405292505050919050565b61122f84611a61565b610a46828260405180602001604052806000815250611ad4565b6060466116ce81611b07565b91505090565b606060006116e383600261267f565b6116ee906002612696565b67ffffffffffffffff81111561170657611706611f48565b6040519080825280601f01601f191660200182016040528015611730576020820181803683370190505b509050600360fc1b8160008151811061174b5761174b6126a9565b60200101906001600160f81b031916908160001a905350600f60fb1b8160018151811061177a5761177a6126a9565b60200101906001600160f81b031916908160001a905350600061179e84600261267f565b6117a9906001612696565b90505b6001811115611821576f181899199a1a9b1b9c1cb0b131b232b360811b85600f16601081106117dd576117dd6126a9565b1a60f81b8282815181106117f3576117f36126a9565b60200101906001600160f81b031916908160001a90535060049490941c9361181a816126bf565b90506117ac565b5083156118705760405162461bcd60e51b815260206004820181905260248201527f537472696e67733a20686578206c656e67746820696e73756666696369656e7460448201526064016105f6565b9392505050565b60006001600160e01b03198216632483248360e11b14806104c357506104c382611b9a565b6001600160a01b03841615610e755760405162461bcd60e51b815260206004820152602b60248201527f536f756c626f756e644e46543a20746f6b656e207472616e736665722069732060448201526a1b9bdd08185b1b1bddd95960aa1b60648201526084016105f6565b6119118282610dfe565b610a465761191e81611bea565b6119298360206116d4565b60405160200161193a9291906126d6565b60408051601f198184030181529082905262461bcd60e51b82526105f691600401611ed6565b60006001600160a01b0384163b15611a5657604051630a85bd0160e11b81526001600160a01b0385169063150b7a02906119a490339089908890889060040161274b565b6020604051808303816000875af19250505080156119df575060408051601f3d908101601f191682019092526119dc9181019061277e565b60015b611a3c573d808015611a0d576040519150601f19603f3d011682016040523d82523d6000602084013e611a12565b606091505b508051600003611a345760405162461bcd60e51b81526004016105f6906125e8565b805181602001fd5b6001600160e01b031916630a85bd0160e11b14905061122f565b506001949350505050565b6060611a6c826110da565b6000611a8360408051602081019091526000815290565b90506000815111611aa35760405180602001604052806000815250611870565b80611aad84611b07565b604051602001611abe92919061263a565b6040516020818303038152906040529392505050565b611ade8383611c00565b611aeb6000848484611960565b6106975760405162461bcd60e51b81526004016105f6906125e8565b60606000611b1483611d7b565b600101905060008167ffffffffffffffff811115611b3457611b34611f48565b6040519080825280601f01601f191660200182016040528015611b5e576020820181803683370190505b5090508181016020015b600019016f181899199a1a9b1b9c1cb0b131b232b360811b600a86061a8153600a8504945084611b6857509392505050565b60006001600160e01b031982166380ac58cd60e01b1480611bcb57506001600160e01b03198216635b5e139f60e01b145b806104c357506301ffc9a760e01b6001600160e01b03198316146104c3565b60606104c36001600160a01b03831660146116d4565b6001600160a01b038216611c565760405162461bcd60e51b815260206004820181905260248201527f4552433732313a206d696e7420746f20746865207a65726f206164647265737360448201526064016105f6565b611c5f8161119b565b15611cac5760405162461bcd60e51b815260206004820152601c60248201527f4552433732313a20746f6b656e20616c7265616479206d696e7465640000000060448201526064016105f6565b611cba60008383600161189c565b611cc38161119b565b15611d105760405162461bcd60e51b815260206004820152601c60248201527f4552433732313a20746f6b656e20616c7265616479206d696e7465640000000060448201526064016105f6565b6001600160a01b038216600081815260036020908152604080832080546001019055848352600290915280822080546001600160a01b0319168417905551839291907fddf252ad1be2c89b69c2b068fc378daa952ba7f163c4a11628f55a4df523b3ef908290a45050565b60008072184f03e93ff9f4daa797ed6e38ed64bf6a1f0160401b8310611dba5772184f03e93ff9f4daa797ed6e38ed64bf6a1f0160401b830492506040015b6d04ee2d6d415b85acef81000000008310611de6576d04ee2d6d415b85acef8100000000830492506020015b662386f26fc100008310611e0457662386f26fc10000830492506010015b6305f5e1008310611e1c576305f5e100830492506008015b6127108310611e3057612710830492506004015b60648310611e42576064830492506002015b600a83106104c35760010192915050565b6001600160e01b03198116811461112a57600080fd5b600060208284031215611e7b57600080fd5b813561187081611e53565b60005b83811015611ea1578181015183820152602001611e89565b50506000910152565b60008151808452611ec2816020860160208601611e86565b601f01601f19169290920160200192915050565b6020815260006118706020830184611eaa565b600060208284031215611efb57600080fd5b5035919050565b80356001600160a01b0381168114611f1957600080fd5b919050565b60008060408385031215611f3157600080fd5b611f3a83611f02565b946020939093013593505050565b634e487b7160e01b600052604160045260246000fd5b600067ffffffffffffffff80841115611f7957611f79611f48565b604051601f8501601f19908116603f01168101908282118183101715611fa157611fa1611f48565b81604052809350858152868686011115611fba57600080fd5b858560208301376000602087830101525050509392505050565b600082601f830112611fe557600080fd5b61187083833560208501611f5e565b60006020828403121561200657600080fd5b813567ffffffffffffffff81111561201d57600080fd5b61122f84828501611fd4565b60008060006060848603121561203e57600080fd5b61204784611f02565b925061205560208501611f02565b9150604084013590509250925092565b60008060006060848603121561207a57600080fd5b83359250602084013567ffffffffffffffff8082111561209957600080fd5b6120a587838801611fd4565b935060408601359150808211156120bb57600080fd5b506120c886828701611fd4565b9150509250925092565b6000806000606084860312156120e757600080fd5b8335925060208401359150604084013567ffffffffffffffff81111561210c57600080fd5b6120c886828701611fd4565b6000806040838503121561212b57600080fd5b8235915061213b60208401611f02565b90509250929050565b8581526001600160a01b038516602082015260a06040820181905260009061216e90830186611eaa565b84606084015282810360808401526121868185611eaa565b98975050505050505050565b600080604083850312156121a557600080fd5b82359150602083013567ffffffffffffffff8111156121c357600080fd5b6121cf85828601611fd4565b9150509250929050565b6000602082840312156121eb57600080fd5b61187082611f02565b6000806040838503121561220757600080fd5b61221083611f02565b91506020830135801515811461222557600080fd5b809150509250929050565b6000806000806080858703121561224657600080fd5b61224f85611f02565b935061225d60208601611f02565b925060408501359150606085013567ffffffffffffffff81111561228057600080fd5b8501601f8101871361229157600080fd5b6122a087823560208401611f5e565b91505092959194509250565b600080604083850312156122bf57600080fd5b6122c883611f02565b915061213b60208401611f02565b600080600080608085870312156122ec57600080fd5b6122f585611f02565b9350602085013567ffffffffffffffff8082111561231257600080fd5b61231e88838901611fd4565b945060408701359350606087013591508082111561233b57600080fd5b506122a087828801611fd4565b600181811c9082168061235c57607f821691505b60208210810361237c57634e487b7160e01b600052602260045260246000fd5b50919050565b60008251612394818460208701611e86565b9190910192915050565b602080825260149082015273151bdad95b88191bd95cc81b9bdd08195e1a5cdd60621b604082015260600190565b6020808252602d908201527f4552433732313a2063616c6c6572206973206e6f7420746f6b656e206f776e6560408201526c1c881bdc88185c1c1c9bdd9959609a1b606082015260800190565b601f82111561069757600081815260208120601f850160051c810160208610156124405750805b601f850160051c820191505b8181101561245f5782815560010161244c565b505050505050565b815167ffffffffffffffff81111561248157612481611f48565b6124958161248f8454612348565b84612419565b602080601f8311600181146124ca57600084156124b25750858301515b600019600386901b1c1916600185901b17855561245f565b600085815260208120601f198616915b828110156124f9578886015182559484019460019091019084016124da565b50858210156125175787850151600019600388901b60f8161c191681555b5050505050600190811b01905550565b60408152600061253a6040830185611eaa565b828103602084015261254c8185611eaa565b95945050505050565b82815260406020820152600061122f6040830184611eaa565b6060815260006125816060830186611eaa565b84602084015282810360408401526125998185611eaa565b9695505050505050565b60208082526025908201527f4552433732313a207472616e736665722066726f6d20696e636f72726563742060408201526437bbb732b960d91b606082015260800190565b60208082526032908201527f4552433732313a207472616e7366657220746f206e6f6e20455243373231526560408201527131b2b4bb32b91034b6b83632b6b2b73a32b960711b606082015260800190565b6000835161264c818460208801611e86565b835190830190612660818360208801611e86565b01949350505050565b634e487b7160e01b600052601160045260246000fd5b80820281158282048414176104c3576104c3612669565b808201808211156104c3576104c3612669565b634e487b7160e01b600052603260045260246000fd5b6000816126ce576126ce612669565b506000190190565b7f416363657373436f6e74726f6c3a206163636f756e742000000000000000000081526000835161270e816017850160208801611e86565b7001034b99036b4b9b9b4b733903937b6329607d1b601791840191820152835161273f816028840160208801611e86565b01602801949350505050565b6001600160a01b038581168252841660208201526040810183905260806060820181905260009061259990830184611eaa565b60006020828403121561279057600080fd5b815161187081611e5356fea2646970667358221220cd373b7796099defcaf21278b765aeb34a94ee6829c310022e0f88f797f5680e64736f6c63430008130033",
  "linkReferences": {},
  "deployedLinkReferences": {}
}